{
  "contractName": "TraceStorage",
  "abi": [
    {
      "constant": true,
      "inputs": [
        {
          "name": "",
          "type": "uint256"
        }
      ],
      "name": "trace",
      "outputs": [
        {
          "name": "",
          "type": "bytes"
        }
      ],
      "payable": false,
      "stateMutability": "view",
      "type": "function"
    },
    {
      "constant": false,
      "inputs": [
        {
          "name": "x",
          "type": "bytes"
        }
      ],
      "name": "addTrace",
      "outputs": [],
      "payable": false,
      "stateMutability": "nonpayable",
      "type": "function"
    },
    {
      "constant": true,
      "inputs": [],
      "name": "getTrace",
      "outputs": [
        {
          "name": "",
          "type": "bytes[]"
        }
      ],
      "payable": false,
      "stateMutability": "view",
      "type": "function"
    }
  ],
  "bytecode": "0x608060405234801561001057600080fd5b506106b5806100206000396000f3fe608060405234801561001057600080fd5b50600436106100415760003560e01c806386a60fc814610046578063a68a4fed14610062578063cfbd5b0614610092575b600080fd5b610060600480360361005b91908101906103a2565b6100b0565b005b61007c600480360361007791908101906103e3565b6100f2565b6040516100899190610529565b60405180910390f35b61009a6101ab565b6040516100a79190610507565b60405180910390f35b60008190806001815401808255809150509060018203906000526020600020016000909192909190915090805190602001906100ed929190610294565b505050565b600081815481106100ff57fe5b906000526020600020016000915090508054600181600116156101000203166002900480601f0160208091040260200160405190810160405280929190818152602001828054600181600116156101000203166002900480156101a35780601f10610178576101008083540402835291602001916101a3565b820191906000526020600020905b81548152906001019060200180831161018657829003601f168201915b505050505081565b60606000805480602002602001604051908101604052809291908181526020016000905b8282101561028b578382906000526020600020018054600181600116156101000203166002900480601f0160208091040260200160405190810160405280929190818152602001828054600181600116156101000203166002900480156102775780601f1061024c57610100808354040283529160200191610277565b820191906000526020600020905b81548152906001019060200180831161025a57829003601f168201915b5050505050815260200190600101906101cf565b50505050905090565b828054600181600116156101000203166002900490600052602060002090601f016020900481019282601f106102d557805160ff1916838001178555610303565b82800160010185558215610303579182015b828111156103025782518255916020019190600101906102e7565b5b5090506103109190610314565b5090565b61033691905b8082111561033257600081600090555060010161031a565b5090565b90565b600082601f83011261034a57600080fd5b813561035d61035882610578565b61054b565b9150808252602083016020830185838301111561037957600080fd5b610384838284610611565b50505092915050565b60008135905061039c81610664565b92915050565b6000602082840312156103b457600080fd5b600082013567ffffffffffffffff8111156103ce57600080fd5b6103da84828501610339565b91505092915050565b6000602082840312156103f557600080fd5b60006104038482850161038d565b91505092915050565b60006104188383610495565b905092915050565b600061042b826105b1565b61043581856105d4565b935083602082028501610447856105a4565b8060005b858110156104835784840389528151610464858261040c565b945061046f836105c7565b925060208a0199505060018101905061044b565b50829750879550505050505092915050565b60006104a0826105bc565b6104aa81856105e5565b93506104ba818560208601610620565b6104c381610653565b840191505092915050565b60006104d9826105bc565b6104e381856105f6565b93506104f3818560208601610620565b6104fc81610653565b840191505092915050565b600060208201905081810360008301526105218184610420565b905092915050565b6000602082019050818103600083015261054381846104ce565b905092915050565b6000604051905081810181811067ffffffffffffffff8211171561056e57600080fd5b8060405250919050565b600067ffffffffffffffff82111561058f57600080fd5b601f19601f8301169050602081019050919050565b6000602082019050919050565b600081519050919050565b600081519050919050565b6000602082019050919050565b600082825260208201905092915050565b600082825260208201905092915050565b600082825260208201905092915050565b6000819050919050565b82818337600083830152505050565b60005b8381101561063e578082015181840152602081019050610623565b8381111561064d576000848401525b50505050565b6000601f19601f8301169050919050565b61066d81610607565b811461067857600080fd5b5056fea265627a7a723058208334660507f7d216bd6323c479aa564dc95a730a8922373d75f15694e04c9c086c6578706572696d656e74616cf50037",
  "source": "pragma solidity >=0.4.0 <0.7.0;\npragma experimental ABIEncoderV2;\n\ncontract TraceStorage {\n    bytes[] public trace;\n\n    function addTrace(bytes memory x) public {\n        trace.push(x);\n    }\n\n    function getTrace() public view returns (bytes[] memory) {\n        return trace;\n    }\n}",
  "sourcePath": "/Users/mond/Desktop/buildtrace/buildtrace_to_share/contracts/TraceStorage.sol",
  "compiler": {
    "name": "solc",
    "version": "0.5.8+commit.23d335f2.Emscripten.clang"
  },
  "schemaVersion": "3.0.10",
  "updatedAt": "2019-07-10T14:06:24.967Z",
  "devdoc": {
    "methods": {}
  },
  "userdoc": {
    "methods": {}
  }
}